:1000000090340120192B010001AE0300052B0100E3
:10001000052B0100052B0100052B0100052B01001C
:10002000000000000000000000000000B92C0100EA
:10003000052B010000000000152C0100052B01001C
:10004000052F0100052F0100052F0100052F0100DC
:10005000052F0100052F0100052F0100052F0100CC
:10006000052F0100052F0100052F0100052F0100BC
:10007000052F0100052F0100052F0100052F0100AC
:10025000052F01007FDE0300052F0100052F01009F
:10026000052F0100052F010069DE0300052F0100A5
:10027000052F0100052F0100052F0100052F0100AA
:10028000052F0100052F0100052F0100052F01009A
:10029000052F0100052F0100052F0100052F01008A
:1002A000052F0100052F0100052F0100052F01007A
:1002B000052F0100052F0100052F0100052F01006A
:1002C000052F0100052F0100052F0100052F01005A
:1002D000052F0100052F0100052F0100052F01004A
:1002E000052F0100052F0100052F0100052F01003A
:1002F000052F0100052F0100052F0100052F01002A
:10030000052F0100052F0100052F0100052F010019
:10031000052F0100052F0100052F0100052F010009
:10032000052F0100052F0100052F0100052F0100F9
:10033000052F0100052F0100052F0100052F0100E9
:10034000052F0100052F0100052F0100052F0100D9
:10035000052F0100052F0100052F0100052F0100C9
:10036000052F0100052F0100052F0100052F0100B9
:10037000052F0100052F0100052F0100052F0100A9
:10038000052F0100052F0100052F0100052F010099
:10039000052F0100052F0100052F0100052F010089
:1003A000052F0100052F0100052F0100052F010079
:1003B000052F0100052F0100052F0100052F010069
:1003C000052F0100052F0100052F0100052F010059
:1003D000052F010053DE0300052F0100052F01004A
:1003E000052F0100052F0100052F0100052F010039
:1003F000052F0100052F0100052F0100052F010029
:10040000052F0100052F0100052F0100052F010018
:10041000052F0100052F0100052F0100052F010008
:10042000052F0100052F0100052F0100052F0100F8
:10043000052F0100052F0100052F0100052F0100E8
:10044000052F0100052F0100052F0100052F0100D8
:10045000052F0100052F0100052F0100052F0100C8
:10046000052F0100052F0100052F0100052F0100B8
:0C047000052F0100052F0100052F0100E1
:10048000064A074B5B7802604FF41A72C37100236F
:100490008280082203728271704700BFCBD30000B4
:1004A00028110020064A074B9B7802604FF4907297
:1004B000C371FF238280082203728271704700BFDC
:1004C0005DCF000028110020F8B5C41D00280546A6
:1004D00024F007040CBF0020204600F037FB061E66
:1004E00002DA6FF00B00F8BD0DB9F442F9D4294FD0
:1004F0003989F8880331FB7A0330BA7A89B280B23D
:100500000AF0FBFA0028ECDB264439787B78002DD2
:1005100006F10306194426F0030600FB01F10CBFA7
:100520000020304600F09CFC30440DB90028D8DB98
:10053000BA780346B2B1F97CFB7811441944FF291B
:10054000CFDC0330002DFA89C9B220F003040CBFC0
:100550000020204600F0F4FC031EC2DB23440DB94A
:10056000002BBEDB397C81B1BA7872B10733002D24
:1005700023F007040CBF0020204604F093F8031E6C
:10058000AFDB23440DB9002BABDB002D0CBF1846AD
:100590000020A8E7281100201FB572B6194BDD6AAC
:1005A000E5B9BFF34F8F1849184BCA6802F4E062EF
:1005B0001343CB60BFF34F8F00BFFDE7B4FBF6F4EE
:1005C000D3B20132002CF9D103F110026A4402F8CF
:1005D0000C4C0A2233B901A8A847E2E704460022DE
:1005E0000A26EDE7013BDBB203F110040DEB040634
:1005F000B0FBF2F402FB1400303006F80C0C20467D
:10060000E8E700BF2811002000ED00E00400FA0533
:100610000C4B07B5DA7A68468DF801209A7A8DF886
:1006200000201A89DB88ADF80420ADF8023002F012
:10063000CDFA18B1E8219C20FFF7AEFF03B05DF8BA
:1006400004FB00BF2811002038B5054668B309F047
:10065000DBF910B94FF0FF3038BD07F007FEB0F5F9
:10066000FA7FF7D8134C1448E562002500F0E8F94A
:100670002A222946204684F830500DF084FB0123BD
:100680006370A3701B23E380238140F20323638103
:100690001F23E38108232374EFF3108472B600F064
:1006A00025FD2CB962B62046D6E76FF01500D3E7DA
:1006B0002846D1E7281100201106000010B50028B7
:1006C00042D1244C94F83030032B3AD059B1002A4F
:1006D0003DD00239052937D8DFE801F00314283668
:1006E0002B2E137863700020FFF7EEFE0028B7BFB3
:1006F000012302236FF00B0084F83030A8BF84F888
:10070000303010BD137913B3537903B31188FB292B
:100710001DD81A2953881AD91B3BE02B17D8136808
:100720009288C4F806300C4B9A80DCE71378A370EB
:10073000D9E71388E381D6E71388FF2B07D8237402
:10074000D1E74FF0FF30DCE76FF02C00D9E76FF016
:100750001500D6E7281100202E110020F8B50D460F
:10076000064630B329B311F0070422D1124F97F88F
:100770003030012B02D16FF00B00F8BD032B02D1FA
:100780004FF0FF30F9E700F09DF80028F8D0284638
:10079000FFF79AFE0028EEDB0CF07CFE3046214687
:1007A00002F0A8FAFFF734FF0323204687F8303021
:1007B000E3E76FF01500E0E72811002010B5074CC3
:1007C00094F83030032B03D102F0ACFA03F06EFA48
:1007D0000AF087FA002084F8300010BD28110020AC
:1007E00050B1074B03F1140253F8041B934240F835
:1007F000041BF9D1002070476FF01500704700BF4F
:100800006C180400074B10B593F830403CB902F067
:100810003BFA0120044900F091F9204610BD4FF049
:10082000FF30FBE728110020A5040000074B10B59E
:1008300093F830403CB902F03BFA2046044900F0FE
:100840007DF9204610BD4FF0FF30FBE72811002056
:1008500081040000054B10B593F830401CB902F03C
:10086000DFF9204610BD4FF0FF30FBE728110020D4
:10087000054B10B593F830401CB90BF03DFB2046FA
:1008800010BD4FF0FF30FBE728110020054B10B5DD
:1008900093F830401CB90BF032FB204610BD4FF0EE
:1008A000FF30FBE72811002002680020014B1A608E
:1008B000704700BF5C110020014B1B68184700BF48
:1008C0005C110020024B1868003818BF01207047E7
:1008D0005C1100202DE9F7430446264E071D2548EC
:1008E000376003F0FBF90228054607D1214920466D
:1008F00009F096FC284603B0BDE8F0830428F9D13E
:100900003378072B18D13E2000F04AF878B9F378F5
:1009100001A93279684643EA0223ADF8003009F0B4
:10092000CCFE0028DBD053210820FFF735FE052040
:1009300000F076F80028EAD03146204609F0A8FCFD
:10094000B0F5817F01D37221EEE70028C7D094F87B
:10095000008094F80290404600F022F80028BED0B3
:10096000B8F13E0FC6D1484600F05AF80028C1D170
:10097000B5E700BF60110020074B4FF0FF3141F693
:10098000FF72C3E9001205490022C1E900221F21BC
:10099000C3E90212704700BF00050020A411002027
:1009A0003F280CD801380B4BC0F3421200F01F0057
:1009B00053F8223023FA00F000F001007047FF28BE
:1009C00006D04038044BC0F3421200F01F00EFE79E
:1009D0000120704700050020A4110020074B0146AC
:1009E000006849681A4603C240F48C221A6041F03C
:1009F000107242F4FF625A60704700BF0005002089
:100A00000246024B0068516803C37047A4110020DE
:100A10000246024B0068516803C370470805002076
:100A20000138064BC0F3421200F01F0003EB8203B3
:100A30009B6823FA00F000F00100704700050020D9
:100A4000014B1860704700BFAC11002007B5FFF7DD
:100A500093FF0AF01BFE044B1B6813B101909847EB
:100A6000019803B05DF804FBAC11002070B50C8850
:100A7000C27CA6B2C4F30E04931C058804F11802CC
:100A80001D44825AADB21A4443882A44013AB2FB4B
:100A9000F5F202FB054292B29342044B8BBF334006
:100AA000B34313439BB20B8070BD00BF0080FFFFB8
:100AB00008B54B1E062B04D84FF4D1711520FFF753
:100AC0006BFD0A4B994202D940F2A311F6E719B91E
:100AD00000B10160084608BD28B103680022C3E9DF
:100AE00001211A1D1A600431F4E700BFFAFFFF7FED
:100AF00010B5114B00EB41041A786389B3FBF2F394
:100B000003FB0223013A1A44B2F5706F027928BF41
:100B100000231A448378B2FBF3F0194403FB10203E
:100B2000091AB1FBF3F003FB101313446FEA4343BC
:100B30006FEA5343638110BDB0110020024B03EBF9
:100B400080004160704700BFB01100202DE9F04FD8
:100B500010F0070A85B0054604D040F26111172055
:100B6000FFF71AFD544F04464FF0010B07F10C0636
:100B7000B146B04657F8043B8DF80BA03BB101A835
:100B800098479DF80A30082B01D9E821E7E79DF83E
:100B90000B1081BB05B13160B94506F10406E9D1FE
:100BA0002DB30023DFF814E102221E468EF8003038
:100BB00058F82200013A60B190F804A08178BAF1A7
:100BC000FF0F64D14FF000078E4207713CBFCEB2D9
:100BD0000123511CECD10BB18EF80060022640F6C7
:100BE000FF6A58F82670002F63D1013EF9D2601BCE
:100BF00005B0BDE8F08F9DF80AC04A1DBCF1020F98
:100C0000E64604EB420438BF4FF0020E53000EF1EB
:100C1000FF300444CEF100002040BDF80840644499
:100C2000CCF1000C013C04EA0C04B4F5803F01D384
:100C3000F82194E775B1C31A336099701C8083F86A
:100C400003B09DF80C201A71019A4FEA124C1A81D8
:100C5000A3F806C004FB01049EE758F82C90B9F1F4
:100C6000000F06D099F804B0D34504BF99F802905C
:100C70004F440CF1FF3CBCF1000FEEDA3944FF2980
:100C8000A2D90BB18EF8006040F2271167E79446B5
:100C90000027F0E707EB410309F101093846A3F803
:100CA0000AA0FFF725FF5FFA89F1BB788B42F1D8E4
:100CB0009BE74FF00009F6E7B4110020B0110020C7
:100CC000F8B54FF6FF7305460380184B03EB81011F
:100CD0000869B8B186780379B3FBF6F206FB1233E4
:100CE000DBB219460A1D00EB4202B2F902705488C9
:100CF000002F09DB0131B1FBF6F206FB1211C9B27C
:100D00008B42EFD10020F8BDFF29FBD0C4F30E03C6
:100D1000C4782B8024B94FF4D5711720FFF73CFC21
:100D20005380BDE8F84009F0C7BE00BFB0110020F5
:100D30001D4B03EB810170B50C69054644B30304F8
:100D400004D54FF4DC711720FFF726FC014620463E
:100D500009F095FEFF28014604D02046BDE870400A
:100D600009F0AABEA078B5FBF0F300FB1353DBB289
:100D700019460A1D04EB4206B6F90260002E09DB93
:100D80000131B1FBF0F200FB1211C9B28B42F0D17C
:100D9000002070BDFF29FBD08B4204EB42021CBF38
:100DA0000023E3705580D8E7B0110020094B03EB16
:100DB000810110B50C690146204609F060FEFF284C
:100DC000014604D02046BDE8104009F075BE002061
:100DD00010BD00BFB0110020F8B5104B074603EB63
:100DE00081010C690146204609F049FEFF280546AD
:100DF00011D0E688238953EA064606D001462046EC
:100E000009F05AFE01463846B04720462946FFF70A
:100E10006FFE0020F8BD0520FCE700BFB0110020E8
:100E200038B50E4B0446827903EB8203186908B982
:100E3000052038BD8278E1799142F9D24B1CE371EB
:100E400000EB41035D89B3F90A30002BF3DBA58089
:100E500009F032FE20600020EBE700BFB011002057
:100E600070B5044610F003000E4603D04E21182042
:100E7000FFF792FBFFF71CFE054624B103483146FD
:100E80000460FFF715FE284670BD00BFCC1100209E
:100E90002DE9F3471C4C90461E46074622680D4636
:100EA0009DF828309DF82CA01AB960211820FFF772
:100EB00073FB1A4609214046019309F062FC524631
:100EC0001FFA80F90921304609F05BFC80B209EB7A
:100ED0000001206809F0A8FD019B386018B928605E
:100EE00002B0BDE8F08700EB0904414609222C60FE
:100EF000386809F00AFC534609223146286802B0D6
:100F0000BDE8F04709F001BCCC11002070B50E46D9
:100F1000044609F049FC0546304609F045FC044BFF
:100F20002A1821461868BDE8704009F0A1BD00BF2D
:100F3000CC110020014B186809F06ABDCC110020CB
:100F40001F2AF8B504460ED89200033222F003039C
:100F5000B3F5803F2ED2194DB4B1A00711D05F2157
:100F60000920FFF719FBFF2A4FEA420304D9FF3299
:100F70009A42A8BF1A46E8E77C2BB8BF7C231A46E2
:100F8000E3E729706C602B8122F0030228230127FC
:100F9000120403FB01F06B680025120CEEB28E42C6
:100FA00000D3F8BD14B126181F705E6010440135DF
:100FB0002833F3E74FF0FF30F3E700BFD0110020F4
:100FC000144A002138B553681478C8B2844203D853
:100FD000AB210920FFF7E0FA1846013128330578E4
:100FE000002DF2D000218170012412898161051D3C
:100FF00044709208C16100F12001446821F8022B7D
:10100000994245F8044B1444F8D10023436103701E
:1010100038BD00BFD01100202DE9F8434B78804641
:101020000C4602F0040602F0FB07D3B1DFB12E4BF1
:10103000D4F804901D89B7BB0123AD084A46211D91
:10104000637004F1280004F12003A761E76123F82D
:10105000025B984241F8042B2A44F8D100236361D3
:1010600001E0002FE3D0FF23A370002E18BF02265B
:10107000A3191B7D032B03D1022F1CBF0136F6B22F
:10108000A31901221A7506F10C02002304EB86064F
:1010900024F812307268A3704046C8F80020A8F8FF
:1010A0000430BDE8F883002114226170A0180CF010
:1010B0006AFEB5F5FF7F0FD26B08ED1AADB209EBF2
:1010C0000502C4F804902584A2606384C4F80C90DF
:1010D000A5842261E384C6E7B5F5EE6F4FF0FF0308
:1010E000EBD940F27265EAE7D01100201E4B0122D5
:1010F0004FF0FF3000211B685A60C3F80803C3F8A3
:101100000015C3F80425194B1B685A60C3F808037F
:10111000C3F8001540F6FE71154B1648C3F80815C4
:1011200001680BB2002B0BDB01F01F015B098A4049
:101130002033114941F82320BFF34F8FBFF36F8F46
:10114000026813B2002B09DB01215B0902F01F02C8
:10115000603301FA02F2084941F82320044B40F6BB
:10116000FE72C3F8082570476C1D0020681D002022
:1011700000200850801D002000E100E00A460648DB
:10118000192302F8033BC368C1F8033003695360B5
:1011900043699360704700BFE0110020024B5A8CF6
:1011A00002435A845B6A1847E0110020014B00217A
:1011B0005B6A1847E011002010B5154C05F02AFFB6
:1011C00005F01CFB208DFFF7F1FF237E63B1224663
:1011D000104904F1190052F80C3BE3606368536056
:1011E000A36893600BF099FA0B4B228D93E80300F0
:1011F00003F0E0FA236B188803F008FAA36B94F865
:10120000341094F835009847002384F83C3010BD22
:10121000E01100207D1100000C120020034B93F818
:101220003C300BB1FFF7C8BF704700BFE011002092
:1012300070B51D4C0646636C256B236495F88C30A5
:1012400094F848000BB1031DD8B295F869102EB977
:10125000FF2803D195F868308B4201D005F09CFD42
:1012600095F88C30D3B1E06C05F08CFF0123E16C74
:1012700084F87030206CD5E93A23C4E9182305F0CE
:10128000D5F916B9304605F0BFFF95F86810002073
:1012900006F004F8022384F83C3070BD206C05F0A1
:1012A00071FF05F0ABFAECE7E011002008B5094B3F
:1012B00093F83C20022A04D040F231212720FFF786
:1012C0006BF9DA7A42F00102DA72BDE80840FFF702
:1012D00073BF00BFE011002003280B4B10B504467C
:1012E00005D19A6FD278022A01D1002010BDD86FA3
:1012F00009F0D9FA0028F9D1032CF6D001F0E8FE64
:1013000080F00100C0B2F1E7E01100202DE9F043C8
:10131000464C87B006460F4694F83C30012B5FFAE6
:1013200083F904D040F2DC412720FFF735F9256B23
:1013300004A8A16F09F0D7FC95F87C309DF81080C7
:101340003BB10021042085F87C10FFF727FF85F8CA
:101350007E90B8F1030F62D195F882301BB9A16F6E
:101360000220FFF71BFF032300E0012385F88230F2
:1013700095F88C30B3B10121236B94F8482084F8A0
:1013800070100392D5E93A01C4E9180193F8690095
:1013900009F0BAFC00210346039A00910220244977
:1013A00005F0EEF826B107B0BDE8F043FFF704BF43
:1013B000002FF8D0D4F88030304698470028F2D07B
:1013C00094F83430002BEED194F88430DD06C3F36A
:1013D000001005D5A36F187800F00300FFF77CFF1D
:1013E000636CD4F888201B78C3F300132AB9B4F8CF
:1013F0008C2013B1B2FA82F35B09628C910709D594
:10140000A36FDB78022BCED1002007B0BDE8F043FC
:10141000FFF70EBF002AC6D10343F5D1C3E79DF8FD
:101420001430002BA1D00223A0E700BFE011002060
:101430003012002010B5094CD4F8883023B940F29E
:10144000CE412720FFF7A8F8B4F88C201846216C6D
:10145000033208F0ADFC206410BD00BFE011002095
:10146000064B10B593F83C2002F0FF0422B91C761D
:1014700003F098F9204610BD0C24FBE7E011002092
:101480000A4B0B4A70B506460D461A60FFF7E8FF97
:1014900018B1ED212720FFF77FF8064C012104F158
:1014A0008E000BF0AAF86664E56470BD4805002064
:1014B000C01C0000E0110020024B012283F8B02084
:1014C000704700BFE0110020F0B585B0794C02AE46
:1014D0000A9F86E8030094F83C1001F0FF0511B95B
:1014E0000AB103B127B94FF4BE712720FFF754F8B2
:1014F00096E8030004F12C0C84F8B05084F83450C2
:1015000004F1500684F8B15084F8355084F8B25094
:1015100084F8B35065842585C4F880306262A7637F
:101520008CE80300256B05F069FC05F067F995F977
:10153000700005F5807705F0BBFC686A05F014FEC5
:10154000E86905F0BBFC95F89C0005F0C1FC95F836
:101550006920C421012005F049FD574B186805F0AA
:1015600009FE2B69E3676B69C4F8B43005F1F00339
:101570001868083353F8041C3246BB4203C21646AF
:10158000F6D159684D4A236BD5F8000103C293F890
:101590008620A2F12501012993F868100E4603D98F
:1015A00093F8870025285DD193F83E322BB1012EA8
:1015B00003D0012B14BF0226012605F13007314666
:1015C00038460BF03AF931460AF082FEAB8F95F8B7
:1015D0006910984228BF184684F8B80038460BF0C6
:1015E00015F995F8691095F88C700429B5F84460E0
:1015F00008BF03210AF06CFE0FB9043080B2B0427C
:1016000095F88C3028BF3046C6B284F8B96084F8AB
:10161000486093B1012395F8690084F87030D5E9EA
:101620003A23C4E9182309F06FFB0022034624493A
:1016300000920220324604F0A3FF0120FFF7F8FDDC
:10164000002323606360A360B5F8803063802B883B
:10165000238095F89C302371EB6E0BB101221A6048
:1016600005B0F0BD203A012A0CD8232893F8262192
:101670000AD012F0010319D192079ED5012918BF93
:1016800002269AE723280DD193F8262193F861309A
:10169000134013F001020BD19B078ED5012908BF1F
:1016A0000E46ECE7032908BF042686E71E4684E7BA
:1016B000164682E7E011002048050020481200206D
:1016C0003012002008B50C4B93F83C201AB9BDE845
:1016D0000840FFF771BD93F83C20022A04D040F285
:1016E00013212720FEF758FF1B6BD3F8B001BDE88C
:1016F000084005F061BD00BFE0110020014B1876E5
:10170000704700BFE0110020014B93F8B200704712
:10171000E0110020024B188DC0F3C020704700BFBD
:10172000E0110020014B93F8B1007047E011002058
:101730002DE9FF41324C03460E4602A8216C256B71
:1017400009F0D1FA13F001089DF80C7003F00200C3
:101750002BD0002384F8BA3090B1FFF76BFE0DF167
:10176000020201A9D4F8B40009F048F9019809F07F
:101770002BF9012230603946D4F8B40009F0D3F8CF
:10178000B8F1000F0ED0D5E93A32013342F1000230
:10179000C5E93A3295F88430012B0CBF00230123B0
:1017A00085F8843004B0BDE8F08194F8BA30032B9A
:1017B00020D801A252F823F059170000C9170000E1
:1017C000E3170000E31700000028EBD0FFF732FE1C
:1017D00000223946D4F8B40004B0BDE8F04109F065
:1017E000A2B80028DED0D4F8B40004B0BDE8F041BF
:1017F00009F000B940F27A412720FEF7CDFE00BF84
:10180000E01100202DE9F04F0023A84C89B080465C
:101810008A46276BCDE9043394F83C30022B04D080
:1018200040F25F512720FEF7B7FE238D590606D4FC
:101830004020FFF7BBFC238D43F040032385216C40
:1018400006A809F050FA97F88C30B8F1000F00F0B4
:10185000C9809DF819B09DF81C507BB104F0DCFFE5
:1018600060B95DB197F884305B4507D1012384F8F6
:101870003530FFF7A1FC09B0BDE8F08FA9B2A4F89C
:101880008C10F1B1D4F8B40009F02EF8C4F8880037
:10189000238D9DF81A2043F40073238597F8833035
:1018A0009A4277D0266B96F88230002B3ED0022BDE
:1018B00011D104A9E06F08F0C0FF28B940F214412B
:1018C000B0E7C4F88810E3E7D6E93832013342F1D3
:1018D0000002C6E93832002196F87E3086F8821080
:1018E00023B1102086F87E10FFF758FC96F87D3063
:1018F000A3B14FF0000986F87D9001F0D3FB10B939
:1019000040F22B418EE749460820FFF747FCD6E915
:101910003832013342F10002C6E9383296F883309A
:10192000012B0CBF0023012386F88330238D4FF059
:10193000000943F40063238597F884305B4527D181
:101940009DF81830266B022B26D88BB385B3238DD8
:1019500096F88C6043F48053238505F0D3F904286E
:1019600094F8B93006D1002E14BF1B221F229342D7
:1019700028BF1346AB422BD3D4F88850002D3FD05C
:1019800094F8B030002B00F08E802020FFF70EFC82
:10199000002535E0C146CFE7032B09D1238D012077
:1019A000216C43F4805386F87C002385FFF7F6FB17
:1019B00096F88430013B18BF012386F88430FDB1CE
:1019C000D6E93A32013342F10002C6E93A32DFE7A2
:1019D00094F83430012043F0100384F8343006F0DA
:1019E00071FDD5E70BB104F02BFF94F8B130002561
:1019F0000133A94684F8B130238D43F480632385F5
:101A000097F88B308BB1002697F86800D7E9382318
:101A100084F87060C4E9182309F076F9FB220346C4
:101A200023490420009604F0ABFDBAF1000F41D128
:101A3000628C94F8B130120703D5A26FD278022AD3
:101A400038D0012B36D8D4F880300120984788B39D
:101A500094F834A0BAF1000F2CD11DB105A90120D2
:101A6000FFF766FE266B002396F88C208DF80D306C
:101A700094F848300AB10433DBB2FF2B96F86810B3
:101A800003D196F869308B4202D0FF2005F084F92B
:101A900096F88230032B00F2F780DFE813F0550050
:101AA0008500DC00ED004546AAE700BFE0110020FC
:101AB0003012002005F012FC002D00F0F18005A985
:101AC0000320FFF735FEB9F1000F0DD0B4F8072061
:101AD000B4F805301343B7F8802013431EBFB4F8A1
:101AE00009300133A4F80930B8F1000F00F0DA80B2
:101AF000B4F805300133A4F80530002384F8B13080
:101B00006B4802F071FD049830B108F05DFF216B65
:101B10000022027202F026F9059B33B1216B0022EC
:101B20001A720C22059802F0EBF8002D7FF4A1AE9A
:101B3000238D1B063FF59FAE8020FFF737FB238DDB
:101B400043F08003238596E694F8B8305948ADF801
:101B50000E30A6F8583001F095FA50B1A16F4FF44D
:101B60008070FFF71BFB012386F87D3084F8B330CB
:101B70001CE00DF10D020DF10E01E06F08F03BFECF
:101B8000A06788B196F8C73073B99DF80D302BB9AE
:101B9000038001218370A06F0AF02FFDA36FBDF8B1
:101BA0000E205A700123E1E7434BA367A16F96F81B
:101BB00083300878DB0003F0080200F0F30300F044
:101BC0000300134396F88420920002F004021343AA
:101BD00023F010030B70FFF77FFB0028A06F18BFE6
:101BE0004FF0100A03784AEA030A80F800A096F83A
:101BF0008B30002B4BD04378002B48D0E06C05F0A5
:101C0000C1FA0022D6E9380184F87020C4E918012D
:101C1000E16CA06F05F098FC18B9A16FE06C04F0BE
:101C200005FD96F86910012005F038FBA26F01232D
:101C3000118884F8B230A4F8841091781F4A84F88F
:101C40003C309170002D3FF43EAF05A902200025E5
:101C5000FFF76EFD37E7B6F858300DF10D020DF1C4
:101C60000E01E06FADF80E3008F0C5FDA06700284A
:101C700098D140F2D121D5E50E4801F003FA0028B1
:101C800090D140F2DB21CDE540F2E921CAE505F033
:101C900079FA04F0B3FD0021A06F0BF022FCC0E73D
:101CA000012510E7B4F807300133A4F8073027E71F
:101CB0000C120020581200206E1200206412002026
:101CC000AD120000051800000D1300001D120000E9
:101CD0002DE9F04F04468BB01F460E46904690F813
:101CE00069900AF053F994F89F310B2B04D940F214
:101CF000FB310620FEF750FCCF4A32F8135094F81F
:101D000087300544039388F00103ADB20493B8F122
:101D1000000F30D194F8DC31032B2CD1039B0D2B19
:101D200029D1B4F83C32B34225D1D4F8E43120466D
:101D3000B4F8B421C4F8D031A369C4F8D431B4F8EC
:101D40002A321344C4F8D83104F0E2FAD4E99023DB
:101D5000A262B4F83E22A361A285D4F8482222628E
:101D600041F64B5293428CBF0023012384F872301A
:101D7000022384F8DC31B4F8280204F5FC7AB4F8C4
:101D800080B0301ADFF8B482A6EB0B0B00B20FFA6A
:101D90008BFB0028BBBFD4E9842358463A46C4E9EC
:101DA000882394F8DC31B8BF0122032B00F2748140
:101DB000DFE813F00400FD0054001C0101210020A5
:101DC0000AF0ADFA8146A06A2946484406F002FAB4
:101DD0002946C4F8E001A06906F0FCF907A9C4F897
:101DE000E40108A805F082FA079BD4E98801009372
:101DF000DDE908230BF0A7FE0546204608F0A8FF02
:101E0000A26AD4F82C3294F8690002EB030B05F0B7
:101E100095FBD4F8E01100F52240ABF1BB0BA38D8C
:101E2000B130ABEB010B3031D94403EB4101A9EBED
:101E300005094FF47A75B0FBF5F0A9EB000594F8AD
:101E4000690008F071FFD4F82C32C8F80000EB1AD2
:101E5000CC2B5AD840F2DE4130204BE7A36A29460A
:101E6000D4F8D401184406F0B5F92946C4F8E001C5
:101E7000A06906F0AFF9C4F8E401204608F068FF55
:101E8000B4F8B431A56AD4F8D491002B40F08A801C
:101E9000002F00F08780A94494F8690005F04EFBFC
:101EA000D4F8E051A9F1BB09834694F86900A9EB85
:101EB0000509D4F81852D4E98423A944A9EB0209EE
:101EC00005F03CFB4FF47A7300F2E730B0FBF3F51A
:101ED0000BF52240A944B130B0FBF3F0A9EB0005AB
:101EE000D4F8E011D4F8D031D4F8D821303194F8B6
:101EF000690002FB0311A38D03EB410108F014FFFD
:101F00000123C8F8000084F8DC31A3694FF0000910
:101F1000D4F8E42104F13000A3F5A27384F8F89119
:101F20009B1AD8F80020934228BF13469846C4F85D
:101F3000B031D4E988325B1942F10002C4E982323F
:101F40000AF062FCB4F8A011A4F8286240448E1B89
:101F500084F80092C4F8FC0136B2D4E982234E45DD
:101F6000C4E98823C4BF022384F80032039B0D2BED
:101F700000F09580002F40F0938094F8DC31002B26
:101F800000F0AB80A1695046D4F8E431C91A0AF0D8
:101F90006EF980B2002800F0A080149B03B1188075
:101FA0000120A9E04D44D4F8E0012D1A98E7D4F8B7
:101FB000D811B4F8B431D4F8E421A5699B44CB43DB
:101FC000AD1A9B44D4F8E0314543D4F8D001303306
:101FD00000FB0133A18D94F8690002FB0B3301EB88
:101FE000430108F0A1FEC8F800008EE7D4F8E43100
:101FF000A569ED1A94F88630252B00FB05F503D072
:1020000094F88730252B09D1B4F83C32F31A1B041D
:1020100004D494F83F32002B18BF994672B3B4F839
:10202000B4315BBBD4E98423D4E9860182428B417D
:1020300006D340F232510FE7801804009C120020B2
:1020400094F8690005F07AFAD4F818220590BB3AA2
:10205000D4E98401101A054494F8690005F06EFA79
:102060004FF47A7200F2E730059BB0FBF2F00544C2
:1020700003F52240B130B0FBF2F02D1AB4F8B411E0
:102080004846D4F8E431594459433031490008F006
:102090004BFE1B4B186038E740F24A51DCE6E7B1D3
:1020A000B4F8C81111B3B4F8CA2194F8CC31501C5B
:1020B000A4F8CA2102FB033399420EDD94F80032E2
:1020C0005BB10023A4F8CA0184F8003201F0E0FEFD
:1020D00000F00700013084F8CC01514694F8F30178
:1020E00007F07CF820B940F29351B5E60A46DCE7E8
:1020F000049B84F8F03100200BB0BDE8F08F00BFE6
:102100009C1200202DE9F04104460D46164690F839
:10211000F03003F0FF071BB10C273846BDE8F08113
:102120000146454806F0BCFF20288046F4D05822DE
:10213000394604F1C8000BF026FE84F8C880C4F8C4
:10214000CC50FF2384F8F03035B101F0B9FE00F037
:102150000700013085F8CC0102234FF00008A4F8F5
:10216000003184F8F88006F08BF8493085B22046BB
:102170000AF0DAFF014670B309F008FF00F5CD6000
:1021800081B2304606F026F83044AE3EC4F8FC007A
:102190000BF06AFC2818A4F8268041F10001C4E97C
:1021A0004201012084F8D0000BF074F8361AC4F80C
:1021B000D4604FF0FF326FF00043C4E9442304F1D0
:1021C000F80194F8C80007F009F848BB40F2CD11B7
:1021D0003020FEF7E1F92046DFF860800AF0C8FE03
:1021E000AE30C4F8FC00B8F8040048B1E08C38B157
:1021F00001F066FEB8F80430B0FBF3F202FB130006
:1022000005440BF031FC2D1841F10001C4E94251A5
:10221000002ECED0751941F10001C4E94451CEE73A
:10222000D4E9422300212046C4E93823C4E93A23F3
:102230000AF097FF71E700BFEFAF00009C1200208B
:10224000F0B5002385B0CDE9003301238DF80630C9
:102250006846FEF7E5FD70B11D4E01230027B371FE
:10226000CDE9027702A8FEF7DBFD0546C8B10023E1
:10227000B37105B0F0BD009808F073FFE8E790F87F
:10228000F30107F09FF894F8F30107F08DFA94F842
:10229000F30184F8DC5106F029FF202384F8F331A0
:1022A000DEE7029B002BDDD093F8F321202AD9D062
:1022B00018884FF6FF739842D9D02946FEF776FD6D
:1022C00004460028DBD14FF49B713020FEF764F9FF
:1022D0009C120020044B0022DA719A7142F21072B3
:1022E0009A80FFF7ADBF00BF9C120020014BD87150
:1022F000704700BF9C12002008B504F009FD044B94
:102300009A6882422ABF9879002080F0010008BDB7
:102310009C1200202DE9F3410446062972D8DFE81B
:1023200001F0042815252C316C00384B9B7903F003
:10233000FF025BB900920123B0F8A411FFF7C8FCBB
:1023400038B140F2DC613020FEF726F9042384F82E
:10235000DC3104F0B5FE06F0BBFD0023B4F88020AC
:10236000A4F82A32A4F8EE2184F8F13102B0BDE8D5
:10237000F081032380F8DC31F8E70BF0A8F8C4E91A
:102380008601F3E78569D0F8E431DFF880809D426B
:1023900088BFED1A98F8073098BF00251BB9036B6A
:1023A0009D4228BF1D46D4F8B07104F130000AF0F8
:1023B0002BFA0744022007F053F90221EE1B26EA0C
:1023C000E676864228BF0646304607F08FF900B908
:1023D000374401234FF48072394620460AF06AFAE6
:1023E000D4F8B031C8F80800A069184407F00AF919
:1023F0000028BBD140F28A31A5E702B0BDE8F04128
:1024000008F0A6BC4FF4F3619DE700BF9C120020CA
:102410002DE9F84306460C4615467ABB04F078FCD5
:1024200084F8D0500746D4E9428984F8F05001215D
:10243000D4F8CC0001F0B0F9D4F8CC00C0E984891C
:1024400094F8C820C0F82C7280F8F321C0E988897C
:1024500008F07FFD20B140F21C713020FEF79CF89F
:1024600004F02EFE06F034FD3246074994F8C80009
:1024700006F018F828B940F2AB71EEE740F2C271ED
:10248000EBE7BDE8F88300BF79AD0000014B988011
:10249000704700BF9C120020304BF0B55A8885B0C1
:1024A000B0F85C700C46B0F85A6097429D8828BF1F
:1024B0001746964228BF16461B2E2ED0B5F5A47F90
:1024C0002DD040F6480301A99D4228BF1D4608F0C3
:1024D000ABFFBDF80A309F4228BF1F46BDF80C3045
:1024E000AB42E78028BF2B462381BDF806309E42D1
:1024F00028BF1E46BDF808309D42668028BF1D4695
:10250000A580FF232370E3881B3B9BB2E02B08D9F7
:1025100040F277613920FEF73FF81B2FCED105B08E
:10252000F0BD63881B3B9BB2E02B02D940F279617E
:10253000F0E72389A3F5A4739BB2B3F5E06F02D94A
:1025400040F27B61E6E7A388A3F5A4739BB2B3F5E1
:10255000E06FE4D940F27D61DCE700BFA812002003
:1025600010B501210020FEF721FC044670B90121BD
:10257000FEF7DEFB044620B940F291313920FEF728
:102580000BF8034B93F906100AF0BAFC204610BD75
:10259000A812002008B509F002FE00F03DFF00F08F
:1025A000F1FB0AF092F801F089F902F08DF80022AF
:1025B000084B1B214FF4A4701A60074B98801A80B7
:1025C00059800648064B186099805A745A829A823C
:1025D0009A7508BD4C050020A812002003021B00BC
:1025E000D4160020044B41F64C52C3E902221B22B0
:1025F0001A74FFF7CFBF00BFD41600202DE9FF41AA
:10260000344D0446AB680363334B836108F0E0FD4F
:10261000064600F0A7FB2B7C10F0200F668784F89D
:1026200038302E4B0EBF1B22AA8869881B6814BF46
:10263000A4F85A10A4F85A20A4F85C201BB194F90D
:10264000701020889847AE7CEF7CB5F8148016B9DE
:1026500000F08EFB064687BB00F08AFB074676B388
:1026600068B303A920468DF80C608DF80D70ADF8A5
:102670000E8009F050FE012369786A8804F1100089
:10268000E385AB88033201910333297892B29BB280
:10269000009104F11401FEF7FBFB236913B940F22A
:1026A0004E6114E0636913B940F24F610FE00020FE
:1026B00004B0BDE8F0810920FAE7002ED1D1002155
:1026C0002088FEF789FB0028F5D040F224613920EC
:1026D000FDF762FFD416002000093D0050050020E0
:1026E000F7B505460E460AF03EFC002874D0284691
:1026F0000AF01AFD40B1B6F80130013B7F2B03D937
:102700001224204603B0F0BD28460AF011FD08B996
:102710000C24F6E7284608F010FE0028F8D12846D9
:102720000AF0DFFB04460028F2D1284602F096FCAE
:102730000028E5D042F21072B6F80170F178284610
:1027400057430AF0DDFC28460AF0E6FC014658B97A
:102750003A462846FFF7D6FC04460028D1D041F679
:102760009F313920FDF718FF21460DF10600FEF7D5
:10277000A7FA064670B3214601F00EF8BDF8063000
:102780002846314633800AF0DDFC28460AF0D6FCA4
:10279000A0B9296A28460AF0D3FC01463046FFF763
:1027A0002DFF04460028ACD13A4631462846FFF7B3
:1027B000A9FC044620B141F6C231D2E70121EDE780
:1027C000064B9B68002B9CD0024606F58D71304667
:1027D000984796E70D2494E7422492E7A812002038
:1027E000024B1B6803B118470C2070474C050020B2
:1027F000034B5A8802801B7883700020704700BF0B
:10280000D416002037B5837805461A2B09D8042B37
:1028100005D9012202FA03F3134A134205D1122407
:102820001AE0292B01D03B2BF9D12888B0F5706F25
:10283000F5D2694609F002FD88B9019B93F8182189
:1028400002F0FF046AB9AA7883F81921FF2283F8FD
:102850001821684609F014FF204603B030BD022459
:10286000FAE70C24F8E700BF200038040188A1F142
:102870001B039BB2E02B0CD8428844F24810A2F50F
:10288000A4739BB2834204D8034B002059809A80E2
:1028900070471220704700BFA8120020034B5A88CF
:1028A0009B88028043800020704700BFA812002050
:1028B00038B50478427804F00103857804F0020406
:1028C00052EA030101D1112038BDBCB9002DFAD064
:1028D000002B08BF144601E000242546204608F0DE
:1028E0006EFD0028EFD0284608F069FD0028EAD0E8
:1028F000054B00209C74DD749882E5E7002BEBD13A
:1029000014461D46EAE700BFD416002013B5008820
:10291000694609F093FC18B10224204602B010BDAC
:10292000019A92F8DC31DBB292F8A820002AF3D1A8
:1029300013F0FB0FF0D0019890F82A310BB13A2434
:10294000EBE790F8D23003F0FF04002BF7D190F8BA
:10295000C9309B0706D1FF2380F82A31684609F069
:102960008FFEDAE70249CA3009F0D7FED5E700BF8B
:10297000E1CD0000F0B5077885B004460D46EF2F95
:1029800003D91225284605B0F0BDB0F80130ADF8E6
:102990000C309DF90C209DF80C30002AF1DB9DF8DD
:1029A0000D209207EDD1DE063FD4980603F0030216
:1029B00038D5002AE5D11907E3D463781A0711D472
:1029C0002179E278E07942EA0122617942EA014222
:1029D000A17941EA0021207A41EA00418A42D0D817
:1029E0001F2ACED9627A013A062ACAD8A27A032AC5
:1029F000C7D813F0040102D1023A012A03D8E27ABF
:102A0000012ABED811B9A27C032ABAD813F010014A
:102A1000227D19D0012AB4D1227E012AB1D8B1B9C0
:102A20001125AFE7032AC6D1ABE713F0600FA8D199
:102A300003F00F0203F00703052BBED0931E012BFA
:102A4000BBD9002A9DD1B8E7022AE5D199E7DB0777
:102A500013D46378227D03F01803082B12D1022AC5
:102A6000DED1BFB201213846FEF7A0F9064678B1A3
:102A700008F063FCB8B10C2584E700F035F90028B4
:102A8000E7D1CDE7022AECD0237F002BE9D0C7E7BE
:102A900001213846FEF74CF9064650B3164B93F920
:102AA00006100AF02DFA30460AF033FB2146287052
:102AB000E07430460AF078FAE37E0546002B3FF4D6
:102AC00061AF00287FF45EAF0246316B6846FEF7C7
:102AD000A3FA2A46306B012108F057F8316B68469B
:102AE0000422FEF799FA2A462946306B08F04DF881
:102AF00048E7072546E700BFA812002070B5057912
:102B00008AB00346042D5CD84488B4F5804F58D869
:102B10002D480021465D2844ADF800104279857AA1
:102B200042F01002C07B8DF8081042EA46028DF890
:102B30001D1042EA850242EAC00202F01F028DF82F
:102B40000020BDF80020ADF809201A888DF80E404D
:102B5000240A8DF80B20120A8DF80D108DF8101034
:102B60008DF80C208DF80F405A7BD3F807008DF8B4
:102B700011205A79059002A88DF812209A798DF8C3
:102B80001320B3F80B209B7BADF818208DF81A307A
:102B90007F238DF81B3001238DF81C308DF81E30FB
:102BA0008DF81F108DF820108DF823108DF824104B
:102BB0008DF821108DF822106946FFF7DBFE0AB070
:102BC00070BD1220FBE700BF98180400027803468E
:102BD00072B1427862B142881A2A09D982881A2AC7
:102BE00006D90068034A106000209B8893807047D4
:102BF00012207047D416002002680020014B9A6012
:102C0000704700BFD41600200378A3F10A02112AEE
:102C10009BBF024A0020122013747047D416002074
:102C200008B5052000F090F803F0A2FB014B024A22
:102C30009A6008BDA81200209924000008B502F08F
:102C4000F5F9FFF747FB0248BDE8084002F0D8B9A4
:102C5000B412002010B501230A4C84F8023102F0AE
:102C6000EDF90AF0D5FB09F098FA04F203112046B9
:102C7000FEF706FC002007F027FFBDE8104001F03A
:102C800025B800BFB412002010B5064C064904F563
:102C9000027009F040F904F503700449BDE81040E2
:102CA00009F039B9B4120020540500205C05002059
:102CB00010B5094C094904F5027009F02CF904F526
:102CC0000370074909F027F904F504700549BDE8C8
:102CD000104009F020B900BFB412002064050020A4
:102CE0006C05002074050020014B93F80201704729
:102CF000B412002010B5074C00F0C4FFD4F808024D
:102D000009F001F9FFF76EFC01F0F2F8012384F8F5
:102D1000143210BDB4120020014B93F81402704716
:102D2000B412002010B5074CD4F80C0209F0EBF8EF
:102D3000D4F8100209F0E7F8FFF72CFC002384F820
:102D4000143210BDB4120020C2080549012300F05E
:102D5000070003FA00F08B5C18438854704700BFEB
:102D600010050020014BD3E9000170471005002039
:102D7000034B1868C0F30020400040F0010070478A
:102D80001005002008B505F071FA0023074A32F853
:102D90002310814205D302EB83039B78044A13700E
:102DA00008BD01330C2BF2D10023F7E7AC18040067
:102DB000C914002010B54468238884F86711A4F86A
:102DC000683194F86830012B06D0022B04D040F211
:102DD00049310620FDF7E0FB84F86A3194F8693048
:102DE000012B01D0022BF2D184F86B3104F5AF70C6
:102DF000034909F092FC002384F8243110BD00BF80
:102E000091BF000040680749038800F25110A0F804
:102E1000093010F8F13CC37210F8F03C037309F06C
:102E200076BC00BFA7BF00002DE9FF4188460979A5
:102E3000054698F8052001F007016C6802F00702CA
:102E40004B1E94F88670501E0B401040034394F8BC
:102E5000870023282FD104F18706002B47D1104685
:102E600009F0F0F888B394F8683098422DD094F8BF
:102E700024C1BCF1010F0CBF94F826C194F864C0C2
:102E800012EA0C0F33D0212F1FD094F861C012EA40
:102E90000C0F1AD10138C0B2032807D8013BDFF864
:102EA0004CC1DBB21CF80000032B0AD940F21F21F1
:102EB0000620FDF771FB212F40F0948004F1860677
:102EC000CBE71CF80330834211D8084609F0BAF862
:102ED000A8B394F86930834231D094F82431012B9F
:102EE0000CBF94F8273194F86530194227D194F833
:102EF0002431012B13D11E212846FFF75BFF212F20
:102F000011D16B68182283F80921092283F88620E1
:102F100093F8C230C3BB40F2B321AE20C9E700230F
:102F200084F82431EBE700232846337009F00AFDCA
:102F30001821284604B0BDE8F04109F02BBDB8F8CF
:102F4000067003AB204600933B4609F085F86A689B
:102F50000446F0B992F82431012B17D101462846D6
:102F6000FFF728FF34706B6803F18702964202D1A5
:102F7000002283F887206B68002403F187029642C1
:102F80002DD1284609F0DEFC00202CE082F8240137
:102F9000E9E7B2F88030A2F83C72DB431F4447F601
:102FA000FD73BFB29F4206D92823284682F8A93074
:102FB00001F022F9DFE792F887300D2B02D00A3BAF
:102FC000012B01D82A23F0E79DF80C3082F83E321D
:102FD0009DF80D3082F83F3225233370CBE783F81C
:102FE000C240D1E7022004B0BDE8F081DC18040043
:102FF000044B002283F822204FF6FF729A84DA8471
:103000001A857047CA140020054B9A8C824201BF72
:10301000002283F822204FF6FF729A84704700BF87
:10302000CA140020014BD884704700BFCA14002086
:10303000084B4FF6FF72998C914206D193F82220EB
:10304000012A04D0036001207047002303600020A0
:10305000704700BFCA140020064B93F82220012AB3
:103060001BBF0120DA8C002083F8220018BF9A844D
:10307000704700BFCA140020014B1885704700BF7D
:10308000CA140020064A918C138D994205D192F8FA
:10309000223013B10260012070470020704700BF4A
:1030A000CA140020094B998C1A8D914201D000203E
:1030B00070474FF6FF729A8493F82220002AF6D0C8
:1030C0000022012083F82220704700BFCA1400208C
:1030D000054B998C1A8D914203BF93F82200B0FAE8
:1030E00080F0400901207047CA14002050B90A4AF4
:1030F0000120134603F8010B0868C2F801008A8812
:103100009A807047012805D1034B0A68D8719A60EC
:103110008A889A81704700BFF414002048B90A4B8E
:10312000187880B1D3F80120B3F805300A608B809D
:103130007047012806D1044BD87920B19A689B8941
:103140000A60F4E700207047F414002020B9054B12
:10315000187800F00100704701280ABF014B0020D9
:10316000D879F6E7F4140020F7B58B8800228DF8A3
:103170000600ADF8043008680B4B8DF807200146B7
:103180001C7803F5AC73019DD0B2844201D80820AD
:1031900007E0D3E9007601320833AE4208BF8F4220
:1031A000F2D103B0F0BD00BF08150020084B014666
:1031B000002230B55C7803F58173D0B2844201D827
:1031C000082004E013F8015B01328D42F5D130BDD7
:1031D00008150020F8B52D4C63782218013B92F8B1
:1031E0000251DBB28342637030D01A010101961C98
:1031F0008F1C2644274406F1100C56F804EB664554
:1032000047F804EBF9D1823282312244214402F1A1
:10321000100652F8047BB24241F8047BF9D1E11860
:10322000221891F8026182F8026106267343704306
:1032300003F5857300F58570E618E35827182350C9
:10324000B388BB8091F83A3182F83A312846FFF7CB
:10325000ADFF082818D12378013BDBB29D422370D3
:1032600012D02B3305F12B0204EBC30304EBC20293
:1032700093E8030082E803002078FFF797FF08280F
:103280001CBF241884F80251F8BD00BF08150020A7
:10329000F0B5254D89B095F8984105F29911684629
:1032A000224606F085FD2146684608F097FF044651
:1032B000B8B300EB400102A8C9B2FDF7FDFA601EE9
:1032C00095F8A1610124C0B295F8982105E0731C1E
:1032D000B3FBF2F102FB1133DEB206F120030DEB7A
:1032E000030111F8203C002BF1D100EB400201F862
:1032F000204C06EB460320322B446A4412F8187C1B
:1033000083F8A27112F8177C12F8162C83F8A371B7
:1033100083F8A4210138AB19C0B283F89941FF2882
:10332000D2D109B0F0BD00BF0815002070B5064627
:1033300088B00C46002A4ED0294A92F8A131D01804
:1033400090F8991119B9FF212820FDF725F903EB11
:1033500043010133114491F8A251E57091F8A35152
:1033600091F8A41125716171002180F8991192F8EA
:103370009811B3FBF1F001FB103382F8A13192F800
:10338000C23123B9174902F5DD7009F0C3F9657937
:103390000D220021684605F03F0545F040056571A6
:1033A0000AF0F1FCE37804AA69468DF80F30304644
:1033B00023798DF80D508DF80E3004230AF02FFC80
:1033C0009DF81F3023709DF81E3063709DF81D30EE
:1033D000A37008B070BD03216018FDF76DFAD6E741
:1033E0000815002091320000044B5A78824286BFB3
:1033F0001B1893F84A010020704700BF08150020F1
:10340000044B5A78824286BF1B1893F84201002071
:10341000704700BF08150020064B00224FF4617171
:103420001A8083F8C32183F8C421A3F8C61183F856
:10343000C221704708150020014B83F8C401704772
:10344000081500202DE9F34782468946174698461D
:10345000FFF78AFE08280546064603D0FFF7A6FEBA
:10346000082864D1344C6378072B62D8082D18D112
:103470002678731C072E237003D96C212820FDF7B2
:103480008BF806F12B03D9F80000DAB204EBC30382
:1034900044F8320004EBC201B9F804208A8083F8B2
:1034A00006A0657807F110026B1C290163704B1CA4
:1034B000234412F8010DBA4203F8010FF9D181310A
:1034C00008F11003214413F8012D984501F8012F4C
:1034D000F9D125441021404608F0BDFE102185F8A1
:1034E0004201384608F0B7FE0023617885F84A01AA
:1034F00085F83A3185F802611048019108F06EFEB6
:10350000054601990E4808F069FE012D03D80028F0
:1035100018BF0135EDB284F898510025284684F88B
:10352000A151FFF7B5FE284602B0BDE8F087122092
:10353000FAE70720F8E700BF081500204A16002028
:1035400052160020064B10B55878013840B20028BA
:1035500000DA10BDC4B22046FFF73CFE601EF5E75E
:1035600008150020014B83F8C3017047081500209F
:10357000014B93F8C301704708150020431E4AF21F
:10358000B7129BB293429DBF024BA3F8C601012024
:103590000020704708150020014BB3F8C6017047A2
:1035A000081500200A4B30B55C7884420ED91844C7
:1035B00090F802012B3003EBC004A5790D7053F88D
:1035C000300010600120A388938030BD0020FCE70C
:1035D000081500200246074810B590F8C34124B1F1
:1035E000417821B1023002F0E9FE204610BD0C46C0
:1035F000FBE700BF081500202DE9F74F2F4C804650
:1036000000921A4663788946834254D9231893F866
:10361000425185F00105E9B193F84A31D3B945F03B
:1036200002070135C2B9F9070BD5062104EB0810D2
:10363000009201FB0841823001F58571FFF776FEAB
:10364000009ABB0733D504EB081049460230FFF758
:103650006DFE2CE02F46E5E794F8A1614FF0010ADA
:10366000002DE0D004EB060B9BF8991199B9009B53
:103670000192D3B100F00CFC019A06EB46018BF8E5
:1036800099A14FEA102C214481F8A201000C81F885
:10369000A3C181F8A401013694F89811013DB6FB4D
:1036A000F1F001FB1066F6B2DAE747F0040738469E
:1036B00003B0BDE8F08F0027F9E700BF0815002030
:1036C000074B5A78824209D91A1892F842212AB92E
:1036D000062202FB003000F585707047002070471D
:1036E00008150020064B5A78824281BF1B1893F8B8
:1036F0003A01B0FA80F0400998BF0020704700BF3F
:1037000008150020F8B50E46074606211546304636
:1037100008F0A1FD044640B10A482946427800F568
:103720009D700AF030FB2046F8BD3146384608F05F
:1037300071FD08281FBF034B0124C01880F83A51BF
:10374000F1E700BF0815002030B5002442F21075E3
:10375000A0F84040B0F844404C43B4FBF2F4A0F869
:103760004440541E05FB0343B3FBF2F3A0F8423080
:10377000084BB3FBF2F30133A0F84830838F05FB0D
:103780000344436B5943B4FBF2F4B1FBF2F284639C
:10379000426330BD005A620270B504460D4659BB03
:1037A0004FF41A720AF0EFFA012384F8DE5084F81D
:1037B0008E306FF0360384F8D930042384F8DA3081
:1037C0006FF03B0384F8DB306F2384F8DC306FF05C
:1037D0003C0384F8DD306FF07F0384F8DF302B2367
:1037E00084F8D830FE2384F80E317F2384F88530A6
:1037F000202384F8F33170BD012917D10023A0F8EC
:10380000B43180F8AB310D4B826913441146B3FBE0
:10381000F2F3C0F8B03040F6B833A0F8B430438CBF
:1038200004F17800BDE87040FFF78EBF0229E2D1B5
:10383000B0F84A32D0F844228169F1E77FC3C90168
:10384000034B80F870101B680BB100881847704755
:103850007C050020074B93F900301844142804DC41
:1038600010F17F0F03DB40B27047142070476FF0F8
:103870007E007047D01600207F2307B50DF10700AA
:103880008DF8073003F0FEFC9DF9073068B10A4A55
:103890005078404240B21844142808DC10F17F0FE1
:1038A00007DB40B203B05DF804FB1846FAE71420CA
:1038B000F8E76FF07E00F5E7D0160020024B0022FB
:1038C0001A705A70704700BFD0160020437893B129
:1038D000C2783F2A05D80A49885CC31A5842584121
:1038E000704702F11401C9B2022906D804490A44FA
:1038F00012F8AC0CF1E7184670470120704700BF82
:10390000E01804003F2908B5C17003D80B4B5B5C7D
:10391000437008BD01F11403DBB2022B04D8074B3E
:10392000194411F8AC3CF3E7FF2904D04FF48A6145
:103930002A20FCF731FE0123EAE700BFE01804006B
:103940002DE9F347894669461646984608F076FC05
:10395000054600283CD1019F36B9012487F88D40E7
:10396000204602B0BDE8F087D7F810A03146504697
:1039700006F0ECFE04460028F2D0174B5B88B342F9
:1039800028D30146504607F01BF897F88D300446BF
:103990000580002B85700CBF4946022108F02DFEE2
:1039A00032464146E01C06F003FA3146504606F026
:1039B00007FF044618B97E212B20FCF7EDFD684671
:1039C00008F05EFE019BA3F8A25187F88D50C7E76F
:1039D0000124C5E72C46C3E7D4160020024B987D8E
:1039E000C04300F001007047D4160020034B987DBF
:1039F00080F00200C0F34000704700BFD4160020E2
:103A000083230B70014B1B78CB707047EC160020A2
:103A10002DE9F347D0F804800D46D8F814603046FD
:103A200006F0C0FF044618B9FF211020FCF7B4FDD2
:103A30000146304606F0C4FFB4F800A081461FFAE4
:103A40008AF717B940F20311EFE71F4BC11C1B683F
:103A50008BB9B8F80030A5F806A0AB8000236B72D4
:103A600099F8003003F00303012B11D0022B0FD083
:103A700040F21D11D9E73A46B8F800000191984785
:103A8000019904460028E4D1204602B0BDE8F08741
:103A900030462B72019106F099FF0199044610B946
:103AA0004FF49371C1E7FB2F02D940F23511BCE707
:103AB000286810B94FF49B71B7E73A4606F078F9D9
:103AC000304606F0DFFEDFE7800500202DE9F347F2
:103AD0008246894605270025DFF84C81D9F8103049
:103AE00053B11B7A1BB980211020FCF755FDD9F882
:103AF0001040B4B9002070E0D9F80440237A012BBB
:103B0000F8D0EFF3108372B6D9F804201268C9F820
:103B1000042003B962B6C9F81040237A0BB9A62174
:103B2000E2E7267AF6B22772731E0B2B69D8DFE81C
:103B300003F065061C3362683C6868686857636810
:103B400013B94FF4D771CFE7204651469847042068
:103B5000EFF3108372B6227A052AD1B25BD12572B7
:103B6000C9F81050ABB962B613E0636813B940F2FC
:103B7000B711B9E75146204698470346ADF804000F
:103B8000C0B2C3F30723012B3ED0022BE0D1C9F80A
:103B900010500028A2D020E0636813B940F2BF1192
:103BA000A2E7204698470020D2E763680BB9B52109
:103BB0009AE70B2200248AF800200122198818694C
:103BC0008AF80220AAF803108AF805208AF806402D
:103BD00006F058FE0420C9F8104002B0BDE8F08796
:103BE000D8F80030514620469847034660B102207D
:103BF000C9F81050F1E74FF4FB7175E740F2F91185
:103C000072E74FF4FE716FE726720028E5D1002BB2
:103C10007FF464AF6EE711B940F21D2164E7002B19
:103C20007FF45CAF62B659E78405002038B5134CC9
:103C300014220021231D18460AF0A5F80346012589
:103C4000257404331422002104F11800C4E901335F
:103C50000AF099F884F8245004F11C03084AC4E9D6
:103C600006330023E362236384F83430C4F835302C
:103C7000C4F8393084F83D30136038BDEC160020AC
:103C80008005002010B5084C2378FF2B04D04FF49A
:103C9000A0711020FCF780FC05F092FF2070BDE8B9
:103CA0001040FFF7C3BF00BF1D05002010B5034C37
:103CB000207805F0A1FFFF23237010BD1D05002013
:103CC000014B187805F0A8BF1D050020014B024AE2
:103CD0001A60704784050020113A000010B50649AB
:103CE0000446FFF7F3FE28B920460449BDE810401A
:103CF000FFF7ECBE10BD00BF04170020F016002037
:103D0000134610B5027A22B140F299211020FCF737
:103D100043FC0A4601460248BDE8104008F0D7BC03
:103D2000F0160020044890F834301BB903492C30B9
:103D300008F0EABC704700BFEC160020C1C60000C6
:103D40000346064890F83E203AB190F83D2022B94B
:103D5000034900F8353B08F0D7BC7047EC1600204B
:103D6000013A00000A4610B5037A23B140F2A121BE
:103D70001020FCF711FC014607230248BDE8104063
:103D800008F0A5BC041700201346027A0AB103729A
:103D900070470A460146014808F099BCF016002019
:103DA0001B234FF01B128384038482618382C260D1
:103DB000038539B94FF4A473034AC3844384C261B1
:103DC000C3820261704700BF4801480103460846AC
:103DD000F0B4B3F85420B3F84840B3F85610944206
:103DE000B3F84460DF8F28BF1446B3F84C20B3F813
:103DF00042508A42DC8728BF0A46B3F846109142F7
:103E0000A3F8422038BF1146A64238BF2646A74233
:103E1000A3F84610A3F844601FD1AA1A18BF0122C4
:103E2000B3F84A50B3F85040B3F85270A5429E8F91
:103E3000B3F8401028BF2546B3F84E40BC429D87DA
:103E400028BF3C46AE42A3F8404002D1A14200D177
:103E50002AB10449F0BC08F060BC0122E0E7F0BCE4
:103E6000704700BF21C700000B8BA2F80900104665
:103E7000A2F80B304B8BA2F80D308B8BA2F80F30D1
:103E8000CB8B0249A2F8113008F041BC71C7000089
:103E9000094AD2E90003434083EAB01181EA432191
:103EA0004FEAF34311605360044B58434FEAF0600C
:103EB00000EB8000704700BF2C170020BB79379EB5
:103EC000094AD2E90003434083EAB01181EA432161
:103ED0004FEAF34311605360044B58434FEAF060DC
:103EE00000EB8000704700BF20050020BB79379EA3
:103EF00010B50A4C08210948FCF7DEFCD4E9002380
:103F00001343F7D0064CFFF7DBFF2060FFF7D8FF25
:103F1000236860600343F6D010BD00BF2005002079
:103F20002C170020174B184A9A60184A5A60184AF2
:103F30001A60184A9A62184ADA62184ADA60184A0D
:103F40009A61184A1A63184A1A62184ADA64184AB7
:103F50009A64184A5A62184B184A9A60184A5A6268
:103F6000184ADA62184A1A61184A5A61184A9A615C
:103F7000184A1A63184A9A64184ADA64184A9A6303
:103F8000704700BF8805002023CA000053CA000004
:103F9000BFCA000025CC000079CC000021430000FE
:103FA0008FCC000059450000054400005DCD0000A5
:103FB00079CD00004D440000940600203FCA000067
:103FC0002FCD0000B1CC000055CC0000D5CC0000B6
:103FD000A5430000FFCD0000A7CD000099CD000053
:103FE00015CD0000044B054A5A65054B054A1A6574
:103FF000054A5A65704700BF8805002073CB000052
:104000009406002059CB0000D1CB0000054B064A96
:104010009A65064A1A66064B064A9A65064ADA65A2
:10402000704700BF88050020D9C00000292E00007D
:10403000940600202BC000007BC10000252A034607
:10404000084610B518D8012A19D9023A232A16D8D9
:10405000DFE802F01A1524232330153415233A45DE
:104060004915154D23236060767D15151515151519
:10407000151515151588939BFF2A00F08E8040F2C8
:10408000D4415120FCF788FA5A681B78012B0CBFE9
:1040900092F8103192F81931037110BD5968D1F8B6
:1040A000BE214260D1F8C22182605B68D3F804313E
:1040B000C360F2E75B6893F81031EDE701461846FC
:1040C000BDE8104000F012BA0F2303715923437169
:1040D000002383716923C37130230372DDE75B68BA
:1040E00093F80A31D8E7BDE8104000F0EFB95A68FC
:1040F0001B784BB992F8103133B192F80D3103713E
:1041000092F80C314371C8E792F80B31037192F8C1
:104110000A31F7E75B68B3F854200271120A427162
:10412000B3F812218271120AC271B3F850200272E0
:10413000120A4272B3F8103183721B0AC372ACE7E1
:104140005B6893F82621027193F82731DAE75B6800
:1041500093F82421012AF4D093F86420027193F893
:104160006530CFE7114A1468002C96D001461A46F4
:1041700023202346BDE8104018470C4A1468002C41
:104180008BD001461A462420F3E7084A1468002C15
:1041900083D001461A462520EBE75B68BDE8104056
:1041A00093F83722D3F8381208F02FBAA00700206E
:1041B0003F2803D8064B53F82000704700F1140342
:1041C000DBB2022B01D8AC38F4E70020704700BF07
:1041D000880500203F2803D8064B53F8200070477D
:1041E00000F11403DBB2022B01D8AC38F4E7002055
:1041F000704700BF94060020F7B5456804464FF6A7
:10420000FF772E690DF102010DF101023046ADF884
:10421000027006F0F0FA01A9304606F00EFB40B13C
:10422000019806F0D1FB616800220272FFF79AFD47
:10423000E8E7044905F1A00003B0BDE8F04008F04C
:1042400066BA00BFB7C90000F0B5044685B00D4698
:10425000FF2600F8896C10F88A3CF3B1184F3B78C0
:104260001BB148211F20FCF797F90C21381DFCF7E2
:1042700023FB3E70002304F8893C07232A4602F8FA
:10428000033BD4F80930C5F80330D4F80D3053603F
:10429000D4F81130936005B0F0BD01A80C21FCF7F3
:1042A0000BFBA4F51473039AC3F8042101AB03CBF1
:1042B00044F8920C44F88E1C04F88A6CDAE700BFCC
:1042C0003417002010B5054C23782BB90C21201D84
:1042D000FCF7F2FAFF23237010BD00BF3417002053
:1042E000024690F8C631BBB990F8C73103F0FF0120
:1042F0000BB100207047094B18780028F9D01970CD
:10430000D9680433C2F8041103CBC2F8BE01C2F865
:10431000C211FF2382F8C6310120704734170020F4
:10432000426838B592F8873004460D463BB1132BEE
:1043300005D0113B0B2B94BF0820012038BD92F80B
:10434000C83013B9204608F0F3FA6268D5F80E3089
:10435000C2F8B631D5F81230C2F8BA316368D5F870
:104360001620C3F800211A88A3F859226A68C3F8F6
:104370005B22AA68C3F85F226368AA89A3F8632254
:104380006368002583F8C6516068054900F514701C
:1043900008F0BAF963681522284683F88720CDE72C
:1043A0004942000038B54368044693F887201C2A28
:1043B00004D04FF4DE711F20FCF7EEF8002293F8D2
:1043C000C8101D8803F5C97083F8C72069B10B496F
:1043D00083F8C820A3F89C5183F89B2108F094F936
:1043E0006368002283F8872038BD012283F89B117F
:1043F000A3F89C51024983F89E21EFE711CC0000FD
:1044000003CC000038B54568AB6F13F0010417D139
:104410004A680C4B896813400B4AC5F8D830C3F37F
:1044200007630A4043F00803C5F8DC2085F8DB3059
:1044300008F07EFAAB6F204643F00103AB6738BD4E
:104440000120FCE72FC904F76FDB0080406810B53E
:1044500090F88630042B23D14B688A68C0F8D83096
:10446000C3F30763C0F8DC2043F0080380F8DB30B7
:10447000002380F8C23080F8863090F8742102F072
:10448000FF047AB9038800F5B670447243814B6823
:10449000C3608B680449036108F036F9204610BDFB
:1044A0000124FBE71C46F9E7F3CC0000406890F8D4
:1044B000743143B9038800F5B670034943811A2368
:1044C000437208F021B97047F3CC000010B50446E0
:1044D000FEF748FC034A044B02400B406260A360B5
:1044E00010BD00BF2FC904F76FDB008037B50C4645
:1044F0004568FEF737FC084B084A03400A4095F828
:10450000D81000930B4001928DF800306B4603CB1E
:104510006060A16003B030BD2FC904F76FDB00807D
:10452000DB0410B5144604D5037D13B100234363A7
:1045300010BD436B0133436308F042FCD0E90D2307
:104540009A42F5D30023034943632046BDE8104057
:1045500008F0E3B84FCD000038B54468054694F83C
:104560008630012B02D0A36F980739D494F8C93054
:104570009A0715D40A79D80784F8D320B1F8052012
:10458000A4F8D420B1F80720A4F8D62043F0020202
:1045900084F8C9200FD5134904F1CA0008F0BDF80A
:1045A00094F8C930D90711D4A36F9A0708D55521BB
:1045B0004020FBF7F1FF94F82A31002BEBD1EFE715
:1045C00043F002032846A36708F0B2F994F8863056
:1045D0000020012B03D184F8860084F8C20038BD86
:1045E0000120FCE7E1CD000070B545680446FFF707
:1045F00043F9054B014685F885001B681BB1204631
:10460000BDE87040184770BDA8070020024B1B682A
:1046100003B11847704700BFA4070020F0B5204D34
:1046200000242B781470CBB3013B6F68DBB21D1BE9
:10463000012D0BDC07EBC40557F834606D688D4223
:1046400008BF864212D114700120F0BD1D196E10F2
:10465000C5F3470557F836C007EBC60E8445DEF8AC
:1046600004608E412CBF2B462C46E0E7B04271EB34
:10467000050502D214700020E7E707EBC30457F8E2
:10468000335064688C4208BF854201D11370DBE768
:10469000A842A14128BF01331370ECE71846D4E7C4
:1046A0005417002010F0070208B503D063214820FA
:1046B000FBF772FF18B1034B197258601A70C800EB
:1046C00008BD00BF54170020014B00221A7070472C
:1046D00054170020014B187A704700BF5417002070
:1046E0002DE9F74308F0ADFB0DF1070206460D4634
:1046F000FFF794FF98B910490A780B7A93420ED0CD
:104700004C6813466FF060479DF80700984209D344
:1047100004EBC003013201200A70C3E9006503B055
:10472000BDE8F083D819013B04EBC000DBB2D0E94F
:104730000089C0E90289E7E75417002037B508F07F
:1047400080FB0DF10702FFF769FF0446A0B10C4A98
:104750009DF8070013785568411C013B05EBC1012A
:10476000DBB213701A1AD2B2D200834238BF0022D1
:1047700005EBC00009F0EFFA204603B030BD00BFE2
:10478000541700200A460648822302F8033B0368B8
:10479000C1F803304368536083689360704700BF7B
:1047A0005D17002016220021014809F0ECBA00BF75
:1047B0005D17002082B002AB03E903000D48437D82
:1047C000B3B1530614D50A880C30B1F8803020F804
:1047D0000C2CD1F8182220F80A3C40F8082CD1F80B
:1047E0001C22054940F8042C022202B0FFF7CCBA83
:1047F00002B070475D17002085470000074BD0F8D6
:1048000051201B68C3F80320B0F85520A3F80720F7
:1048100090F85010184607F074BE00BF7C170020B7
:1048200070B504460E461346407F6588324615F043
:1048300004050CBF294604F15F01FEF7DDFE4207C7
:10484000054623D4C3070BD50123607F84F850307D
:10485000FEF736FF0368C4F851308388A4F855305A
:1048600015F0020F4FF001050ED0094B294684F8D0
:104870005E501868D4F85F30C0F80930B4F863307F
:10488000A0F80D3007F046FE284600E0002070BD7D
:104890007C17002038B5C38D04460F4D0133C3F398
:1048A0000E03C385AB7C2BB102F0DEFC01F0E4FD0E
:1048B0000023AB7400232B7194F871302BB10121CC
:1048C0002046BDE8384006F0F8BC637C13B1E28DA9
:1048D0009A42F4D20021F3E77C17002010B5094C6E
:1048E0002379012B02D02379022B05D1A37C1BB1A4
:1048F00002F0BAFC01F0C0FDE069BDE81040FFF72E
:10490000C9BF00BF7C17002070B5294C2379012B4B
:1049100007D02379022B04D040F657412D20FBF716
:104920003BFEA0B90125A37C1BB102F09DFC01F068
:10493000A3FD002D3AD0E06906F038FC002830D005
:1049400002F068FB236ABDE870409B681847216845
:10495000E26911F8095B02F1510392F85020E8096D
:1049600007F01EFC0028DDD00021206807F0F7FDCD
:104970000028D7D02379E069012B05D02379022BB9
:1049800002D04FF44361C9E7237905F00F01226A91
:1049900003F180435269013B52F8233098470546A2
:1049A000C1E7E069BDE87040FFF774BF70BD00BFAC
:1049B0007C1700200346074AD06903B909B9FFF7FD
:1049C00069BF1379126A03F180431269033B52F8FD
:1049D000233018477C17002003292DE9F0430546B2
:1049E00085B090467BD090F870300529DBB202D1BB
:1049F0004288D0075FD5002B5DD10127DFF8E89012
:104A000099F81260B6B107F00FFC082888F800008A
:104A100014D002AA0DF10701FEF7C4FD20B940F63B
:104A2000CF612D20FBF7B8FD02A99DF8070008F023
:104A300014FA064698F80030082B08D1D9F800106F
:104A400011F8030BC0F3801008F007FA0646D9F8F6
:104A5000001005F1580395F8572011F8030BC0F327
:104A6000801007F09DFBD9F80010044611F8030BE5
:104A7000C0F3801007F0CEFB8146FEF733FE40B155
:104A8000B9F1080F1CD04846FEF7AEFC80F00100DB
:104A9000C0B298F80020082A16D09CB96B7F991AEA
:104AA0004B424B416A88520706D420B99EB9EB7C31
:104AB0009BB1BB4211D00023184605B0BDE8F0837E
:104AC0000020E6E70123EDE714B180F00104E4B231
:104AD00004F00103E6E73346EEE70123ECE7438801
:104AE0009B07E8D5022789E77C1700202DE9F04FC6
:104AF00085B00823052104460DF107028DF8073023
:104B0000FFF76AFF064620B90026304605B0BDE82B
:104B1000F08F744F396807F11403FA7C11F8030B16
:104B2000C0F3801007F03CFB80460028ECD13B68C6
:104B300040F2E249216A184691F88E2010F8035B92
:104B400002EA551202F0010281F88E20D3F8032008
:104B5000C1F803208288A1F807201946226A11F8BB
:104B60001F0BC0F3801090700979D3F81F008DF8E7
:104B70000C10D3F80F100290D161597D187D0904F3
:104B800041EA0021D87C01435162B3F8191082F840
:104B9000728009FB01F191619D7DC5EB451105EB2B
:104BA000810505EB85056D009585B3F8171009FBA8
:104BB00001F19162B3F81B101184B3F81D105184F8
:104BC00093F8243003F01F015B0982F89A1002A9C0
:104BD00082F89F31256A94F912B005F18E0007F032
:104BE000E7FB40F20113A5F868304FF0FF0A85F8A3
:104BF0006AA0414605F13000FFF7D2F85946284631
:104C0000FEF71EFE236A84F87B8004F186011A8871
:104C100084F899A0A4F87C204FF6FF729DF8070055
:104C2000A4F89A209A69B2FBF9F2A4F892201A8C9F
:104C3000A4F894205A8CA4F8962093F89F2184F825
:104C40009820227F5AB394F85020012A27D194F853
:104C5000562002F0C002402A21D1D4F85120C4F8D5
:104C60008620B4F855208A8008289A7803F1030535
:104C700004F18C0184F87F2004F18002D3F8033022
:104C800027D0C4F88C30AB888B8004F17F01FEF70D
:104C900089FC40B940F6B6312D20FBF77DFC00229F
:104CA000C4F88620DFE794F87F3043F0020384F8ED
:104CB0007F3004F172000C4907F026FD0B4B0022F7
:104CC000206A1B683A71002B3FF41FAF21469847BA
:104CD0001BE7C4F88030AB8893800023C4F88C3085
:104CE0008B80E6E77C17002087CE0000B00700200D
:104CF000032973B5044604D0052956D0012002B01B
:104D000070BD08230DF107028DF80730FFF764FE30
:104D10000028F3D0237C2A4D03B39DF8070094F8B4
:104D2000BE30DBB92378082804F1C10284F8BF3013
:104D30002CD004F1C001FEF735FC20B940F64571D6
:104D40002D20FBF729FC94F8C03043F0020384F8CF
:104D5000C0301C4904F1B60007F0D6FC2B680622CF
:104D6000042620465A701E70FFF748FD94F8402034
:104D7000E16B286807F0E4FB28682E7102F002FA64
:104D80002868002108F0ADFB0020B8E7286803463A
:104D900013F8031BC1F3801184F8C010D0F803107E
:104DA000C4F8C1109B889380D3E7074B1B6823B1DD
:104DB000984780F00100C0B2A1E718469FE700BF06
:104DC0007C1700206FCE0000AC070020F8B5044629
:104DD0000F4619B300F12805284608F038FAA0B9A3
:104DE00063881A072ED5284608F046FA0646284654
:104DF00008F02DFA301AC0B208F04CFA494A93680C
:104E000018449060284608F001FA284608F003FA92
:104E100002F05EF82179252001F0BEFF414E00230B
:104E200094F85E203068037043706388103B0D2B4C
:104E300068D8DFE803F063675F0C674467676767FC
:104E4000676767442046BDE8F840FFF723BD0623A7
:104E50004370202303702046FFF7D0FC638823F0C3
:104E600008039BB2152B05D094F83820616B30688D
:104E700007F057FB306802F085F90021306808F030
:104E800030FB032321790020337102F04DF80546F1
:104E900007B9F06063881B0704D508F0F8F92844C7
:104EA000C4F8D8006388103B0D2B36D8DFE803F038
:104EB00038352F2F352F353535353535352F0C23F2
:104EC00021214370034603F8091B52B1D4F85F2037
:104ED0000121C0F80920B4F863209A8007F01AFB7A
:104EE000B9E7A26DC0F80920B4F85C209A8094F864
:104EF0005710F3E7062303704370ACE702230370F7
:104F00000623F9E740F234612D20FBF745FB2179B8
:104F10000120BDE8F84002F0C1B940F6CA41F3E70C
:104F2000F8BD00BF7C17002038B543880446102B1D
:104F300004D10121BDE83840FFF748BF0B4DAB7CE1
:104F400023B101F06DFA402002F082F9286802F0E6
:104F500019F9608810F0040002D1217902F09EF95D
:104F6000002002F051F901232B7138BD7C1700207D
:104F7000024B0121D869FFF729BF00BF7C17002031
:104F800010B5134CA37C1BB102F06EF901F074FA5A
:104F9000E06906F00BF970B12379E069012B0FD1BC
:104FA0002379226A03F18043D268013BBDE81040B7
:104FB00052F823301847E069BDE81040FFF76ABC9B
:104FC0002379022BECD040F658312D20FBF7E4FA80
:104FD0007C170020094810B5037903F0FF0453B98A
:104FE00018222146043008F0CEFE02F03DF901F00F
:104FF00043FA204610BD0C24FBE700BF7C170020BD
:1050000010B50023084C23712060FFF7E3FF20B1A7
:1050100040F2EF212D20FBF7BFFA236A13B940F2CB
:10502000F221F7E710BD00BF7C170020014B024AB8
:105030001A6270477C17002014530000034B044A87
:105040001A60044B044A1A60704700BFAC07002086
:10505000ED4A0000B0070020112400002DE9F041C6
:10506000067D0446B31EDBB2012B8CBF4FF0000857
:105070004FF001087EB3B71E18BF0127012B36D8A9
:1050800000F1580190F8570007F0C4F808280546C9
:105090002DD0FEF7B5F958BB657784F81C8084F8ED
:1050A0005070FEF779FA054608F0DEFC174B002237
:1050B000A5FB033584F85E20181845EB0105114661
:1050C000C4E912052046FFF7ABFB70B940F27A4104
:1050D0002D20FBF761FA3746082504F15101002025
:1050E000FEF71CF80028D7D10020BDE8F081082584
:1050F000022EF2D0E37E002BF6D0D4F81530C4F89F
:105100005130B4F81930A4F85530C5E740420F00CB
:10511000F0B5484E87B00446327902F0FF0312B969
:105120000278FF2A04D140F6B7112D20FBF734FA9C
:105130003382B3607371B37180F871303E4B02A853
:1051400002933E4B03933E4B0493336A5B68059393
:1051500002F010F801F052FE02F086F801F08CF92E
:10516000384801F0ABFE384801F0FEFF04F128009A
:10517000019008F04BF8019808F04DF801F0A8FEF6
:105180002179252001F008FE94F9120001F090FE2B
:1051900004F13401206B05F015FD074604F13C01D4
:1051A000206B05F034FD0546E7B194F82430CBB10F
:1051B000B4F92E50ED43ED0F237F13B963885B07DD
:1051C00009D56FF00043D4E912129A4208BFB1F139
:1051D000FF3F0ED1ADB930680330FEF7FBF9B07474
:1051E00007B0F0BD002DE7D094F82550002DDFD199
:1051F000E2E708F039FCD4E91223904271EB030393
:10520000E8D3012229462046FFF70AFB68B1FEF7E2
:10521000C3F9054608F028FC0C4AA5FB0232181811
:1052200042EB0102C4E91202D5E7002DD3D040F6CB
:10523000F4117AE77C170020814F00000949000033
:10524000B5490000D6BE898E5555550040420F0025
:10525000F7B50446FFF75CFF00212046FFF7B6FDD7
:10526000A36E0BB101221A606388DB0721D50023EE
:10527000256A114E05F10A07CDE90033FF23F374C7
:105280006846FBF7CDFDA0B9009CA542F8D03B468F
:105290006A7A04F10A01607A06F082FF0028EFD0F2
:1052A000A378F374D4F80300044B7061B4F80720BA
:1052B0009A8003B0F0BD00BF7C170020901700203B
:1052C000024BD8611B6A1B68184700BF7C1700207F
:1052D00043881B0710B504460ED5036A3C220849D3
:1052E000723042721B884381FF2380F827304FF6CB
:1052F000FF73038507F008FAFF2384F8713010BDAF
:1053000087CE0000D9CE0000294F0000DFCE00007C
:10531000F14C000051520000DD480000714F0000C8
:105320000453000008530000105300000138022805
:1053300008B503D9C3212F20FBF72EF913290A4BF7
:1053400005D811290CD8102907D0D121F3E7152948
:10535000FBD103EB4003D88801E033F8100008BD0F
:1053600003EB40039889FAE77C190400F8B52F4B4A
:1053700040281A8842EA00021A8005D10421986860
:10538000BDE8F840FCF7C6BF802801D10521F6E74B
:1053900000F00302032A04D140F696213120FBF7E6
:1053A000FBF810F0020418BFD960C50705D5CA780C
:1053B0001961062A0DD00B2A18D02CB1DA68D278E0
:1053C000052A1FD00B2A2AD0820644BF08221A754C
:1053D000F8BD9A6892F887101829EED100260027A8
:1053E0000121C2E9386782F88B10E6E79A6892F8E3
:1053F0008710122901BF002182F88B10012182F849
:10540000C810DAE79A6892F887101629DCD10024D0
:1054100000250121C2E93A4582F88C10D4E79A6848
:1054200092F887101129CFD10021F5E7A0170020AD
:1054300013B5044601A8FDF7FBFD20B940F687012E
:105440003120FBF7A9F822220021019808F09BFCEB
:105450000321019807F0D1F801982146037823F041
:1054600010030370FEF74EFA224601990548FEF735
:10547000E5FDFDF7F1FD10B940F69101E0E702B05E
:1054800010BD00BFA417002070B5274CA36893F887
:105490003E6293F83F52002E3FD193F86810002DE2
:1054A0003DD193F8692083F8681083F86920FF22C2
:1054B00083F86A201D4B1B680BB1A0689847A3684E
:1054C00093F82431012B02D056EA050303D00021C2
:1054D0001748FDF76FFCA068303007F095F90546D6
:1054E000A06800F23511FEF771FCA0680621FCF7F8
:1054F00011FFA068303007F087F98542044610D2CA
:1055000002F0F0FF0146601B192838BF192004F093
:10551000EDF8B0FA80F0400970BD3146BFE72A4689
:10552000C1E70120F8E700BFA0170020C007002056
:10553000A41700200029034608BF1F21172810B513
:105540000BD80D280DD90E3809280AD8DFE800F04D
:105550000B0909090B090B09110BA0F12303022BFD
:1055600023D9002010BD00211846BDE8104007F0E7
:1055700095BE114CA36893F88620212A09D1201DDD
:10558000FDF718FCA368002283F8862083F8C22068
:10559000E7E72E2AE5D193F88730A3F12002062A07
:1055A000F0D92E2BEED02A21E9E7044B1B68002B03
:1055B000D7D0BDE810401847A0170020B80700203A
:1055C000114B02460979986890F88630212B11D04A
:1055D0002E2B0FD0282B0FD0042B0FD00F2B0FD03A
:1055E0001D2B0FD090F88730232B14BFFE201720DF
:1055F000FFF7A0BF1620FBE72320F9E70E20F7E70F
:105600001220F5E71420F3E7A017002073B5044635
:105610004068836F13F0300F48D10D891A2D0AD9D5
:105620004B89B3F5A47F06D38A881A2A03D9CE887A
:10563000B6F5A47F06D2C978204602B0BDE8704016
:1056400007F0A8B929463030009607F0EFF8184B5C
:105650001A8892070ED5DA68D278142A0AD16268BD
:10566000936F43F010039367204607F061F9002021
:1056700002B070BD626892F886101D29EFD092F8D2
:105680001B21002AEBD1626892F81A21002AE6D188
:1056900061688A6F42F020028A679A68114602F5B3
:1056A0009F7231F8300BFEF7DFFBDDE70120DFE70B
:1056B000A017002008B50C4B9B6893F80E21FE2A1A
:1056C00004D040F696013120FAF766FF83F80E0108
:1056D00011B9A3F8C41008BD0022A3F8BE2001220E
:1056E00083F8C220F7E700BFA01700200D4B1A7DFA
:1056F0009AB940B99B68B3F858109A8F91420FD865
:105700001846FCF7F9BD1A88120708D59B6893F86C
:105710008800073818BF012070470020704701201B
:10572000704700BFA0170020154BDB6810B5197932
:10573000436893F88620092A09D193F809218A42FF
:1057400005D1002283F8862083F8C22010BD9A6F0D
:1057500012F0080406D022F00802BDE810409A6753
:1057600007F0F0B8FF2905D1332283F8344283F8DB
:105770008620EBE740F242513120FAF70DFF00BFDF
:10578000A017002010B50B7904464268172B92F839
:1057900086200CD80D2B0CD9A3F10E01092908D8AD
:1057A000DFE801F009070707090709071009232B9C
:1057B00026D0002010BD224601211846BDE8104029
:1057C00007F06CBD212A01D02E2AF2D1204607F025
:1057D000A6F8636893F88720222AEAD093F8D920A4
:1057E0001A21204622F0010283F8D920626892F83B
:1057F000D93023F0080382F8D930FDF7DBFAD8E777
:10580000282AD6D1024B1B68002BD2D09847D0E76C
:10581000BC070020F7B505467E4C002840F0AC8060
:1058200023881F0727D5A36893F80E21FE2A04D1E9
:1058300040F2BE513120FAF7AFFEFE2283F80E216E
:1058400093F887201A2A07D183F8C700201D07F094
:1058500079F8A36883F88750A36893F88620202AF4
:1058600032D0332A3ED093F88820072A02BF022282
:10587000627583F80E212388DE073CD423885807FD
:1058800000F1A980990713D5E368DE780D2E00F0AA
:10589000AA80112E00F0A980072E00F0A8803046C3
:1058A000FEF798FC0346002800F0A3805A4898476A
:1058B0002388DA0660D5A36893F887200A2A5BD18B
:1058C0000B2283F8872057E093F88720A2F120016C
:1058D000062901D92E2A03D12E2283F88620C2E779
:1058E0002122FAE7012283F83522002283F886205C
:1058F00083F8C220B7E7A368276993F88730113B84
:105900000B2B0BD8FB78023BDBB2092B7DD8012295
:1059100002FA03F340F23332134276D03846FDF7F1
:10592000D5FFFE7820B931463B4807F033F845E013
:10593000012E01D9162E0FD1A36893F8860007F027
:1059400016F848B1A36893F88620202A04D0212AAB
:105950000ED12E2283F88620112E34D026D8072E81
:1059600033D00D2E33D03046FEF722FC034621E023
:10597000162E0CBF20250225237D1B0713D5A368F7
:1059800093F88730113B0B2B41D9002601A9032046
:105990000196FBF7CDFE019B2BB11E720C22A16874
:1059A0000198FEF7ADF9284603B0F0BD142EDAD108
:1059B0001A4B1B686BB121691748984700283FF4C0
:1059C0005DAF0546D8E7164BF5E7164BF3E7164BE8
:1059D000F1E7F978A8E7A26892F88820062A04BFC0
:1059E000012262754EE7114B60E7114B5EE7114BE8
:1059F0005CE7FF2E06D1A268332182F8340282F8D8
:105A0000861055E740F2B25114E70825B4E708259F
:105A1000C9E700BFA0170020A4170020B40700208A
:105A2000B1D3000085570000C155000041D30000EC
:105A30005FD30000295700002DE9F041A44C0E4629
:105A40000746B4F80080A16818F4007F01F17805DA
:105A50000CBFB1F8B820002328460DBF0132A1F8D1
:105A6000B83081F8AF31A1F8B82007F090FC28B128
:105A7000434601F596722846FEF752FD238803F44B
:105A8000C06333B1A06890F88A30002B4AD0032B52
:105A90004ED0A168238891F88A20012A04D11D05DF
:105AA00044BF022281F88A20002F40F0AC805806C3
:105AB00057BFB1F8C8213A46013292B2A1F8C821C5
:105AC00003F00A020A2A0DD1E268D278022A09D12B
:105AD00023F0080330462380FFF79CFE3043082361
:105AE000C6B223803046FFF795FEA368304393F893
:105AF0000E21C6B2FE2A4ED1002E4CD193F888203A
:105B0000063A012A47D993F81831B3B1A3680121A5
:105B1000022093F81921A3F8BC6083F81021FFF745
:105B2000C9FD38E0012180F88A10FCF7F3FBB0E7EB
:105B30000223012180F88A30F7E7A06890F88730C7
:105B4000A3F11005EDB20C2D11D8113B0B2B00F277
:105B50005181DFE813F007014F014F014F010A01A6
:105B600012014F014F014F014F014F013D01836F62
:105B7000D90702D531460920D1E79A0740F19A802A
:105B800031460C20FFF796FDA26892F8C93043F029
:105B9000010382F8C930A568B5F8A83195F8AC8141
:105BA0000133A5F8A831B8F1000F00F0E181FBF74F
:105BB000B1FD10B10023A5F8A831A16891F88A8041
:105BC000B8F1010F40F20A8291F88830072B40F0BB
:105BD000E781B1F8B830022B40F20082B1F8BA5038
:105BE0000135ADB2B1F880302B44A1F8A03191F865
:105BF000AD31002B00F0F6810123A268B2F88010CD
:105C00000B44A2F8A4312288A368550657BFB3F805
:105C1000B4210022B3F8A6115218A3F8B42193F8C6
:105C200018312BB9A36893F88830063B012B07D8AD
:105C3000A368B3F8BC20B3F8A6110A44A3F8BC20AB
:105C4000A36893F8C20030B1B3F8BE20B3F8A61130
:105C50000A44A3F8BE2093F9C6100029C1BFB3F8C7
:105C6000C420B3F8A6515219A3F8C42093F8A92070
:105C70005AB9002F40F04B82627D022A40F0008228
:105C800093F81021062A18BF1622A36893F8A830AB
:105C90002BB9A3680F4883F8A920FEF7ADFAA068D6
:105CA00007F0BFFBA368002283F8AB21BDE8F041F9
